S01E00004652444D2D4B4C32355A5F426C696E6B45636C697073652E73313914
S21400000000300020D960010031620000616200000B
S21400001061620000616200006162000061620000CF
S21400002061620000616200006162000041620000DF
S2140000306162000061620000E5C6000079C600004B
S214000040616200006162000061620000616200009F
S214000050616200006162000061620000616200008F
S214000060D55200006162000061620000616200001B
S214000070616200006162000061620000616200006F
S214000080616200007D810000616200006162000024
S214000090616200006162000061620000616200004F
S2140000A0C119010061620000616200006162000027
S2140000B06162000061620000FD61000015620000E0
S214000400FFFFFFFFFFFFFFFFFFFFFFFF7EFFFFFF78
S21400080080B586B000AF78600A00BB1C1A807B6893
S2140008103B6100F0A1FB0E23FB18012252421A8016
S2140008201623FB1800221A801423FB1800221A80B5
S2140008301423FB1800221A8017E01423FB181B88C9
S2140008403A69D3181A780E23FB181B881900100073
S21400085000F028FC02001623FB181A801423FB184D
S2140008601A881423FB1801321A801423FA18BB1CAA
S21400087012881B889A42E0D31623FB181B881800A0
S214000880BD4606B080BDC04680B582B000AF786079
S2140008907B681A787B6801331B78D318DAB27B68DA
S2140008A002331B78D318DAB27B6803331B78D3186D
S2140008B0DBB25B42DBB21800BD4602B080BDC0466C
S2140008C080B582B000AF78607B688A22002199529A
S2140008D07B688C2200219950C046BD4602B080BD80
S2140008E080B584B000AF786039600E23FB18002214
S2140008F01A800D23FB1800221A70B1E00E23FB1895
S2140009001B880E22BA18591C118019000C23FB18DC
S2140009107A68525C1A700E23FB181B887A68D31804
S2140009201800FFF7B1FF03001A000C23FB181B7812
S214000930934200D094E00E23FB181B880E22BA18B0
S214000940591C11801A007B689A5C3B681A700E234B
S214000950FB181B880E22BA18591C11801A007B68D7
S2140009609A5C3B685A700E23FB181B880E22BA1836
S214000970591C11801A007B689A5C0A23FB181A809F
S2140009800E23FB181B880E22BA18591C11801A0059
S2140009907B689B5C1B021AB20A23FB1800215B5E75
S2140009A013431AB20A23FB181A800E23FB181B885F
S2140009B03A6852789B187A688A21525A934207DD21
S2140009C00E23FB180E22BA181288053A1A8051E038
S2140009D00E23FB181B887A68D2183B685B789BB29C
S2140009E019001000FFF70CFF03001A000A23FB187B
S2140009F01B88934226D10D23FB1801221A703B68F0
S214000A00981C0E23FB181B88053B7A68D318052212
S214000A10190018F0B1FB3B68D81D0E23FB181B8885
S214000A207A68D1183B685B781A0018F0A5FB3B681B
S214000A305B7899B20E23FB180E22BA1812888A1811
S214000A401A8017E00E23FB180E22BA181288043AF2
S214000A501A807B688C229B585A1C7B688C215A50C3
S214000A600E23FB181B8805337A688A21525A934254
S214000A7000DC43E77B688A229B5A0E22BA1812884B
S214000A809A4221D20E23FB181B88002B20D07868B0
S214000A900E23FB181B887A68D1187B688A229B5A1B
S214000AA01A000E23FB181B88D31A1A0018F0A2FB94
S214000AB07B688A229A5A0E23FB181B88D31A99B28F
S214000AC07B688A22995203E07B688A220021995229
S214000AD00D23FB181B781800BD4604B080BDC04629
S214000AE080B584B000AF78607B681A787B68DA706F
S214000AF07B685A787B681A717B68DA1D7B685B783E
S214000B009BB219001000FFF77BFE03001A000E23AD
S214000B10FB181A807B6805330E22B91802221800CB
S214000B2018F02AFB7B6803331800FFF7ADFE0300BE
S214000B301A007B689A70C046BD4604B080BDC046A9
S214000B4080B582B000AF786039607B6800221A708A
S214000B507B6804225A707B6807333A6812781A70EA
S214000B607B68083318003B6802330222190018F02D
S214000B7003FB7B680A333A68043212781A70C04660
S214000B80BD4602B080BDC04680B582B000AF78607A
S214000B9039607B6802221A707B6824225A707B6850
S214000BA0073339680422180018F0E6FA7B680B331E
S214000BB018003B6804330422190018F0DDFA7B683D
S214000BC00F3318003B6808330422190018F0D4FAD3
S214000BD07B68133318003B680C330422190018F0A6
S214000BE0CBFA7B68173318003B68103304221900D1
S214000BF018F0C2FA7B681B3318003B6814330422D3
S214000C00190018F0B9FA7B681F3318003B681833D0
S214000C100422190018F0B0FA7B68233318003B68EA
S214000C201C330422190018F0A7FA7B682733180033
S214000C303B6820330422190018F09EFAC046BD46D1
S214000C4002B080BD80B582B000AF786039603B6886
S214000C501B78012B0AD13B685B78012B06D13B68D9
S214000C6007331A787B681A70002300E00123180007
S214000C70BD4602B080BDC04680B582B000AF786089
S214000C8000F02CFAC046BD4602B080BD80B500AF6D
S214000C9000F02AFA031E01D0012300E0002318000A
S214000CA0BD4680BD80B596B000AF78607B68180002
S214000CB0FFF716FF0823FB18180045231A0000212B
S214000CC018F0E4FA00237B650DE07A687B6DD31894
S214000CD0023319780823FA187B6DD3180A1C1A7089
S214000CE07B6D01337B657B6D042BEEDD00233B655E
S214000CF00CE03B6D053379683A6D8A180732117837
S214000D000822BA18D1543B6D01333B657B685B788B
S214000D101A003B6D9A42ECDC7B685B780533DAB2EE
S214000D200823FB181100180000F020FAC046BD4644
S214000D3016B080BD80B5A8B000AF78600A00FB1C76
S214000D401A700C23FB181800FFF7BAFD00239C222C
S214000D50BA18136014E0184A9C23FB181B68D318B3
S214000D6019780C23FA189C23FB181B68D3180A1C46
S214000D701A709C23FB181B6801339C22BA18136058
S214000D80FB1C1B785A1D9C23FB181B689A42E2DC4E
S214000D90FB1C1B789BB2053399B20C23FB188A22E6
S214000DA099527A680C23FB1811001800FFF798FD7B
S214000DB0C046BD4628B080BD00F6FF1F84B090B583
S214000DC097B000AF68243C1920606160A260E360C1
S214000DD05723FB186822BA1812781A706823FB1873
S214000DE0591DBB1D0222180018F0C6F90823FB186F
S214000DF05722BA1812781A70BB1D1A880823FB18D7
S214000E005A800823FB18482268218C46BC4462445A
S214000E1012781A710823FA181023FB18110018000C
S214000E20FFF78EFE1023FB181800FFF73BFFC046A7
S214000E30BD4617B090BC08BC04B0184780B5A0B03B
S214000E4000AFF860B9607A603B601423FB18FA685C
S214000E501A601423FB18BA685A601423FB187A68C1
S214000E609A601423FB183A68DA601423FB18882269
S214000E70BA1812681A611423FB188C22BA18126862
S214000E805A611423FB189022BA1812689A61142328
S214000E90FB189422BA181268DA611423FB189822F9
S214000EA0BA1812681A621423FA183823FB181100AD
S214000EB01800FFF769FE3823FB181800FFF7F2FE4C
S214000EC0C046BD4620B080BD80B594B000AF786007
S214000ED00823FB1806211800FFF72CFF0823FA1832
S214000EE07B6811001800FFF7ADFE031E01D100233A
S214000EF000E001231800BD4614B080BD80B500AFE9
S214000F00134B180000F0FAF803009BB2013B9AB2AC
S214000F10104B1A800E4B9B78002B0FD00C4B9B78F7
S214000F201A000C4B1B88053B9A4207D100F03CF98F
S214000F30084B00221A80064B5B7806E000F034F976
S214000F40044B00221A8001235B421800BD4680BD78
S214000F5000F6FF1F40F6FF1F80B582B000AF0023EB
S214000F603B6000237B6049E000233B607B680122F6
S214000F70134003D03B68254A53403B607B680222FF
S214000F80134003D03B68224A53403B607B680422F0
S214000F90134003D03B681F4A53403B607B680822DF
S214000FA0134003D03B681C4A53403B607B681022CA
S214000FB0134003D03B68194A53403B607B682022AD
S214000FC0134003D03B68164A53403B607B68402280
S214000FD0134003D03B68134A53403B607B68802233
S214000FE0134003D03B68104A53403B600F4B7A686F
S214000FF092003968D1507B6801337B607B68FF2B99
S214001000B2D9C046BD4602B080BDC0462110000021
S21400101042200000844000000881000031120000D9
S21400102062240000C448000088910000241A0020B2
S21400103080B584B000AF02003960FB1D1A700F2324
S214001040FB1800221A7020E0FB1D1A783B681B0A6A
S21400105053408022134007D03B685B00104A534041
S2140010601B041B0C3B6004E03B685B001B041B0C72
S2140010703B60FA1DFB1D1B78DB1813700F23FB1853
S2140010801A780F23FB1801321A700F23FB181B78EF
S214001090072BD9D93B681800BD4604B080BDC046B2
S2140010A02110000080B582B000AF02003960FB1D41
S2140010B01A703B681B021B041A0C3B68190AFB1DBE
S2140010C01B784B40FF211940034B8900CB585340F7
S2140010D01800BD4602B080BD241A002080B500AFBF
S2140010E0C046BD4680BDC04680B500AF03F040FE9A
S2140010F00300DBB21800BD4680BDC04680B584B094
S21400110000AF7860C046174B4021180003F0ACFFD4
S21400111003000C2BF7D003F02BFE031E1DD000237C
S214001120FB600AE0FB687A68D3180F49FA688A18E9
S21400113012781A70FB680133FB60FB683E2B07D8F9
S214001140FA68094BD318180006F06CFA031EE9D0AB
S214001150054AFB68D31800221A70FB681800BD46C3
S21400116004B080BD44F6FF1F84F6FF1F80B582B032
S21400117000AF78600A00FB1C1A70C046094B40217D
S214001180180003F071FF03000C2BF7D0FB1C1B7834
S2140011909AB27B681100180003F042FEC046BD46B6
S2140011A002B080BD44F6FF1F80B500AF06F0A8FA77
S2140011B0C046BD4680BDC04690B58BB000AF386017
S2140011C079603B687C680822B9181A00230008007A
S2140011D000F010F803000A211800FFF7C7FF044BC1
S2140011E0180003F047FEC046BD460BB090BDC04693
S2140011F0F4940100F0B593B000AF7861BA60FB607C
S214001200BA68FB68B868F96814F08CFD031E08D04D
S2140012107A69C14B1000190004231A0017F0ACFFBE
S214001220C3E1BB683B60FB685B005B087B60012337
S2140012301C1C01225242B94B3868796814F072FDC2
S214001240031E0AD101225242B44B3868796812F064
S21400125023F9031E01D100231C1CE3B201225340D4
S214001260DBB2002B08D07A69AD4B100019000423BE
S2140012701A0017F081FF98E100220023B868F96889
S21400128012F0FAF8031E08D07A69A64B100019006F
S21400129002231A0017F070FF87E17B69FB630123C6
S2140012A01C1C00220023B868F96812F0EBF8031E35
S2140012B001D100231C1CE3B23B633B6B002B06D022
S2140012C0BB68BB60FB68802212065340FB60BB68AD
S2140012D0FC681800210015F07BF903000C001800CC
S2140012E0210014F03FFD03007B647B6C0D2B08DCB3
S2140012F03B6B002B02D07B6C082B02DC7B6C08332C
S21400130001DA012300E00023FB623B6B002B04D0D4
S214001310FB6B5A1CFA632D221A70FB6A002B2CD02A
S2140013207B6C002B0EDA786C14F052FD00227E4B9C
S21400133014F0A4F903000C001800210014F012FDAC
S21400134003007B64786C14F043FD03000C0000205F
S21400135076491A00230015F0C7F903000C001A009E
S2140013602300B868F96813F0EBFA03000C00BB60C2
S214001370FC607B6C3B6400237B64786C14F028FD77
S2140013800022694B12F07EF8031E01D000237B6416
S2140013906FE0786C14F01CFD03000C00002063491D
S2140013A01A00230015F0A0F903000C003B627C62D3
S2140013B000220023386A796A12F078F8031E45D0B6
S2140013C03B6A1D007B6A5B005E0801225242534B5B
S2140013D02800310014F0A6FC031E08D10122524258
S2140013E04E4B2800310012F057F8031E2ED03A6AF2
S2140013F07B6AB868F96813F0A3FA03000C001800BB
S214001400210014F08BFE03000C001800210014F0DD
S214001410A9FC0300FB61F86914F0DAFC3A6A7B6AFF
S21400142013F0B2FE03000C001A002300B868F96837
S21400143014F024F903000C00BB60FC60FB6B5A1C24
S214001440FA63FA69D2B23032D2B21A707B6C002BD1
S2140014500CD100220023B868F96812F027F8031EA2
S21400146004D0FB6B5A1CFA632E221A707B6C013B6D
S2140014707B642F4B5C681B681A002300B868F96809
S21400148012F014F8031E00D083E77B6C002B00DB01
S2140014907FE7FB6A002B00D184E0FB6B5A1CFA63E3
S2140014A065221A703B6C002B05DDFB6B5A1CFA6339
S2140014B02B221A7007E0FB6B5A1CFA632D221A7057
S2140014C03B6C5B423B6400237B6416E0FC6B631C56
S2140014D0FB633B6C0A21180011F0B8FF0B00DBB26F
S2140014E03033DBB223703B6C0A21180011F0C8FEC3
S2140014F003003B647B6C01337B643B6C002BE5DCB8
S2140015007B6C5B42FA6BD318FB630023BB637B6C7C
S214001510013B7B633EE0C046F8940100FFFFEF7F8F
S214001520FC940100009501000000F03F00002440FC
S21400153000F0FF1FBB6BFA6BD318BA6BF96B8A18F7
S21400154011787A6BF86B821812784A40D2B21A7009
S2140015507B6BFA6BD3187A6BF96B8A181178BA6BB7
S214001560F86B821812784A40D2B21A70BB6BFA6BCC
S214001570D318BA6BF96B8A1811787A6BF86B8218E5
S21400158012784A40D2B21A70BB6B0133BB637B6BD6
S214001590013B7B63BA6B7B6B9A42CBDB7B6CFA6B53
S2140015A0D318FB63FB6B00221A707B691800BD46DC
S2140015B013B0F0BD80B500AF00F06CFD96235B0065
S2140015C0180009F075FB00F065FD174B180000F0D9
S2140015D07FFB164B180000F07BFB154B180000F045
S2140015E077FB144B180000F073FB134B180000F049
S2140015F06FFB124B180000F06BFB114B00221A60B9
S2140016000F4B00225A600E4B00229A600D4B0022B0
S2140016101A600C4B00225A600A4B0B4A9A60002351
S2140016201800BD4680BDC0460C1F00204C1E002082
S214001630241E00209C1E0020E41E0020741E002095
S214001640C4F6FF1FD0F6FF1FC3F51C4180B500AFE0
S214001650134B180000F01AFF114BDB685B005B08A9
S2140016601049181C11F05CFF031E13D10C4B1B69AC
S2140016705B005B080B49181C11F052FF031E09D1D2
S214001680074B5B695B005B080649181C11F048FFB6
S214001690031E01D0002300E001231800BD4680BDD4
S2140016A0C41E002000002041B0B586B000AF0C2359
S2140016B0FB1800221A600C23FB1800225A600C2329
S2140016C0FB1800229A603B0000221A603B000022B2
S2140016D05A603B0000229A605F4B1B685F4A934249
S2140016E071DC3A000C23FB181100180000F03AF9E0
S2140016F0031E68D15A4B180000F0C8FE594B1A68F2
S2140017000C23FB181B68191C101C11F053FF031C3C
S2140017101A1C544B1A60534B5A680C23FB185B6810
S214001720191C101C11F046FF031C1A1C4D4B5A6066
S2140017304C4B9A680C23FB189B68191C101C11F064
S21400174039FF031C1A1C474B9A60474B1A683B002C
S2140017501B68191C101C11F02DFF031C1A1C424B91
S2140017601A60414B5A683B005B68191C101C11F04C
S21400177021FF031C1A1C3C4B5A603B4B9B68181CF1
S21400178014F068FB04000D003B009B68181C14F066
S21400179061FB364A364B12F0A7FD02000B00200014
S2140017A0290012F0A1FD03000C001800210014F01F
S2140017B0A5FB021C2C4B9A60274B1B685A1C264B19
S2140017C01A60002343E0244B1A68FA23DB009A428F
S2140017D03DD1244B1B682749181C12F061F8031CE6
S2140017E01A1C254B1A601F4B5B682249181C12F006
S2140017F057F8031C1A1C204B5A601A4B9B681D494D
S214001800181C12F04DF8031C1A1C1B4B9A60164B42
S2140018101B681849181C12F043F8031C1A1C174BB7
S2140018201A60114B5B681349181C12F039F8031C38
S2140018301A1C124B5A600C4B9B680E49181C12F06F
S2140018402FF8031C1A1C0D4B9A600123FFE71800A3
S214001850BD4606B0B0BDC046DCF6FF1FCF07000091
S214001860C41E0020E0F6FF1FECF6FF1F1F85EB519D
S214001870B89E23400000FA44C4F6FF1FD0F6FF1FB0
S21400188080B500AF00F034FD03001800BD4680BDF3
S21400189080B500AF00F052FD03001800BD4680BDC5
S2140018A090B583B000AF786039602B4B180000F01D
S2140018B057FD031E4BD1284BDA68284B1B68191CB2
S2140018C0101C12F0CBFA031C1A1C7B681A607B688B
S2140018D01C1D214B1A69214B5B68191C101C12F049
S2140018E0BDFA031C23607B6808331C001A4B5A6938
S2140018F01A4B9B68191C101C12F0B0FA031C2360CC
S214001900154B1A68164B1B68191C101C12F0A6FA09
S214001910031C1A1C3B681A603B681C1D0E4B5A6859
S2140019200F4B5B68191C101C12F098FA031C2360FE
S2140019303B6808331C00084B9A68094B9B68191CC7
S214001940101C12F08BFA031C2360002300E0012316
S2140019501800BD4603B090BDC41E0020C4F6FF1F8D
S214001960D0F6FF1F80B582B000AF786039601D4B9F
S214001970180000F08BFD031E2FD11A4BDB687A6827
S2140019801100181C00F030F8164B1A697B680433F7
S2140019901900101C00F066F8124B5A697B68083371
S2140019A01900101C00F09CF80E4B1B683A681100DA
S2140019B0181C00F0D3F80B4B5A683B680433190028
S2140019C0101C00F009F9074B9A683B6808331900A9
S2140019D0101C00F03FF9002300E001231800BD466C
S2140019E002B080BDC41E002090B585B000AF786000
S2140019F03960786814F02EFA0022164B13F0C4FBF8
S214001A0003000C001800210014F0ACF90200124B81
S214001A101100180000F076F90F4B180000F08CF952
S214001A200300FB60F86812F0D9FB031C181C14F0C6
S214001A3011FA0A4A0A4B13F0A7FB03000C00180021
S214001A40210014F05BFA021C3B681A60C046BD46D3
S214001A5005B090BD000024400C1F00209A9999996B
S214001A609999B93F90B585B000AF786039607868CD
S214001A7014F0F0F90022164B13F086FB03000C005E
S214001A801800210014F06EF90200124B1100180025
S214001A9000F038F90F4B180000F04EF90300FB6019
S214001AA0F86812F09BFB031C181C14F0D3F90A4AC2
S214001AB00A4B13F069FB03000C001800210014F019
S214001AC01DFA021C3B681A60C046BD4605B090BDB4
S214001AD0000024404C1E00209A9999999999B93F84
S214001AE090B585B000AF78603960786814F0B2F9C8
S214001AF00022164B13F048FB03000C0018002100D0
S214001B0014F030F90200124B1100180000F0FAF839
S214001B100F4B180000F010F90300FB60F86812F095
S214001B205DFB031C181C14F095F90A4A0A4B13F0C7
S214001B302BFB03000C001800210014F0DFF9021C38
S214001B403B681A60C046BD4605B090BD0000244004
S214001B50241E00209A9999999999B93F90B585B015
S214001B6000AF78603960786814F074F90022164B7C
S214001B7013F00AFB03000C001800210014F0F2F822
S214001B800200124B1100180000F0BCF80F4B1800B2
S214001B9000F0D2F80300FB60F86812F01FFB031C8D
S214001BA0181C14F057F90A4A0A4B13F0EDFA030012
S214001BB00C001800210014F0A1F9021C3B681A6002
S214001BC0C046BD4605B090BD000024409C1E0020C7
S214001BD09A9999999999B93F90B585B000AF786070
S214001BE03960786814F036F90022164B13F0CCFAF8
S214001BF003000C001800210014F0B4F80200124B89
S214001C001100180000F07EF80F4B180000F094F852
S214001C100300FB60F86812F0E1FA031C181C14F0CD
S214001C2019F90A4A0A4B13F0AFFA03000C00180021
S214001C30210014F063F9021C3B681A60C046BD46DA
S214001C4005B090BD00002440E41E00209A999999A2
S214001C509999B93F90B585B000AF786039607868DB
S214001C6014F0F8F80022164B13F08EFA03000C005E
S214001C701800210014F076F80200124B110018002C
S214001C8000F040F80F4B180000F056F80300FB6019
S214001C90F86812F0A3FA031C181C14F0DBF80A4AC2
S214001CA00A4B13F071FA03000C001800210014F020
S214001CB025F9021C3B681A60C046BD4605B090BDBB
S214001CC000002440741E00209A9999999999B93F6A
S214001CD080B584B000AF78600023FB6007E07B68C7
S214001CE0FA6892000021D150FB680133FB60FB6864
S214001CF0082BF4DD7B6800225A62C046BD4604B05D
S214001D0080BDC04680B582B000AF786039607B6821
S214001D105B6A591C7A6851627A689B0039689950E8
S214001D207B685B6A092B02D17B6800225A62C04638
S214001D30BD4602B080BDC04680B584B000AF7860B6
S214001D400023FB607B685B6ABB60BB68002B02D02D
S214001D50BB68013B00E00823BB607B68BA68920062
S214001D60D2584E4B1B685343FA68D318FB60BB68C7
S214001D70002B02D0BB68013B00E00823BB607B68F9
S214001D80BA689200D258454B5B685343FA68D3183A
S214001D90FB60BB68002B02D0BB68013B00E0082359
S214001DA0BB607B68BA689200D2583C4B9B68534332
S214001DB0FA68D318FB60BB68002B02D0BB68013BF7
S214001DC000E00823BB607B68BA689200D258334BA9
S214001DD0DB685343FA68D318FB60BB68002B02D05D
S214001DE0BB68013B00E00823BB607B68BA689200D2
S214001DF0D2582A4B1B695343FA68D318FB60BB685A
S214001E00002B02D0BB68013B00E00823BB607B6868
S214001E10BA689200D258214B5B695343FA68D318CC
S214001E20FB60BB68002B02D0BB68013B00E00823C8
S214001E30BB607B68BA689200D258184B9B695343C4
S214001E40FA68D318FB60BB68002B02D0BB68013B66
S214001E5000E00823BB607B68BA689200D2580F4B3C
S214001E60DB695343FA68D318FB60BB68002B02D0CB
S214001E70BB68013B00E00823BB607B68BA68920041
S214001E80D258064B1B6A5343FA68D318FB60FB68AC
S214001E901B141800BD4604B080BDC04608F0FF1FE6
S214001EA080B584B000AF78600023FB6007E07B68F5
S214001EB0FA6892000021D150FB680133FB60FB6892
S214001EC0092BF4DD7B6800229A62C046BD4604B04A
S214001ED080BDC04680B582B000AF786039607B6850
S214001EE09B6A591C7A6891627A689B003968995097
S214001EF07B689B6A0A2B02D17B6800229A62C046E6
S214001F00BD4602B080BDC04680B584B000AF7860E4
S214001F100023FB607B689B6ABB60BB68002B02D01B
S214001F20BB68013B00E00923BB607B68BA6892008F
S214001F30D258574B1B685343FA68D318FB60BB68EC
S214001F40002B02D0BB68013B00E00923BB607B6826
S214001F50BA689200D2584E4B5B685343FA68D3185F
S214001F60FB60BB68002B02D0BB68013B00E0092386
S214001F70BB607B68BA689200D258454B9B68534357
S214001F80FA68D318FB60BB68002B02D0BB68013B25
S214001F9000E00923BB607B68BA689200D2583C4BCD
S214001FA0DB685343FA68D318FB60BB68002B02D08B
S214001FB0BB68013B00E00923BB607B68BA689200FF
S214001FC0D258334B1B695343FA68D318FB60BB687F
S214001FD0002B02D0BB68013B00E00923BB607B6896
S214001FE0BA689200D2582A4B5B695343FA68D318F2
S214001FF0FB60BB68002B02D0BB68013B00E00923F6
S214002000BB607B68BA689200D258214B9B695343E9
S214002010FA68D318FB60BB68002B02D0BB68013B94
S21400202000E00923BB607B68BA689200D258184B60
S214002030DB695343FA68D318FB60BB68002B02D0F9
S214002040BB68013B00E00923BB607B68BA6892006E
S214002050D2580F4B1B6A5343FA68D318FB60BB6811
S214002060002B02D0BB68013B00E00923BB607B6805
S214002070BA689200D258064B5B6A5343FA68D31884
S214002080FB60FB681B141800BD4604B080BDC0464C
S2140020902CF0FF1F80B58AB000AF914B180003F0FC
S2140020A01FFA02008E4B1A608D4B00221A712423F1
S2140020B0FA188C4B1000190002231A0017F05CF86F
S2140020C0C046874B18682423F9180123022203F020
S2140020D08FFA031EF5D1C046814B1B79DBB2012B6C
S2140020E0FAD17F4B00221A712023FB1819221A708E
S2140020F02023FB1800225A70C046794B186820230C
S214002100F9180123022203F073FA031EF5D1C04624
S214002110734B1B79DBB2012BFAD1714B00221A717B
S2140021201C23FB181B221A701C23FB1800225A7053
S214002130C0466B4B18681C23F9180123022203F0D3
S21400214057FA031EF5D1C046654B1B79DBB2012B4F
S214002150FAD1634B00221A711823FB181C221A703E
S2140021601823FB1800225A70C0465D4B18681823C7
S214002170F9180123022203F03BFA031EF5D1C046EC
S214002180574B1B79DBB2012BFAD1554B00221A7143
S2140021901423FB1823221A701423FB1800225A70EB
S2140021A0C0464F4B18681423F9180123022203F087
S2140021B01FFA031EF5D1C046494B1B79DBB2012B33
S2140021C0FAD1474B00221A711023FA18464B10001A
S2140021D0190002231A0016F0CFFFC046404B1868BD
S2140021E01023F9180123022203F002FA031EF5D188
S2140021F0C0463B4B1B79DBB2012BFAD1384B002291
S2140022001A710C23FA18394B1000190002231A0011
S21400221016F0B2FFC046324B18680C23F91801239B
S214002220022203F0E5F9031EF5D1C0462C4B1B79BC
S214002230DBB2012BFAD12A4B00221A710823FB18B5
S2140022406A221A700823FB1800225A70C046244BD4
S21400225018680823F9180123022203F0C9F9031E9F
S214002260F5D1C0461E4B1B79DBB2012BFAD11C4BB5
S21400227000221A713B1D6B221A703B1D00225A70F9
S214002280C046174B1868391D0123022203F0B0F927
S214002290031EF6D1C046124B1B79DBB2012BFAD1D6
S2140022A00F4B00221A713B006C221A703B00002272
S2140022B05A70C0460A4B186839000123022203F000
S2140022C097F9031EF6D1C046054B1B79DBB2012BEE
S2140022D0FAD1034B00221A71C046BD460AB080BD33
S2140022E0341F002004950100089501000C9501009C
S2140022F080B582B000AFFB1D3B221A700E4B002249
S2140023001A710D4B00225A71C0460B4B1868F91D06
S2140023100123012203F06CF9031EF6D1C046064BDA
S2140023201B79DBB2012BFAD1034B00221A71002372
S2140023301800BD4602B080BD341F002080B500AF37
S214002340054B1868054901230E2203F0EFF9030038
S2140023501800BD4680BDC046341F0020F8F6FF1F9B
S21400236080B584B000AF7860464B5B79DBB2012B5A
S21400237000D082E0434B00225A71434B1B781B026D
S21400238019B2414B5B781AB20E23FB180A431A8027
S2140023900E23FB1800229B5E180000F04BF9021C6F
S2140023A07B681A60384B9B781B0219B2364BDB7879
S2140023B01AB20E23FB180A431A800E23FB180022BB
S2140023C09B5E180000F036F9021C7B685A602E4BA4
S2140023D01B791B0219B22C4B5B791AB20E23FB1821
S2140023E00A431A800E23FB1800229B5E180000F09A
S2140023F021F9021C7B689A60234B1B7A1B0219B2D8
S214002400214B5B7A1AB20E23FB180A431A800E235E
S214002410FB1800229B5E180000F0F4F8021C7B6894
S214002420DA60194B9B7A1B0219B2174BDB7A1AB289
S2140024300E23FB180A431A800E23FB1800229B5E0D
S214002440180000F0DFF8021C7B681A610E4B1B7B3D
S2140024501B0219B20C4B5B7B1AB20E23FB180A4305
S2140024601A800E23FB1800229B5E180000F0CAF8A4
S214002470021C7B685A61002300E001231800BD4659
S21400248004B080BD341F0020F8F6FF1F80B584B06E
S21400249000AF78600D23FB183B221A70574B0022C2
S2140024A01A71564B00225A71C046544B18680D23B9
S2140024B0F9180123012203F09BF8031EF5D1C0464C
S2140024C04E4B1B79DBB2012BFAD14C4B00221A7112
S2140024D0C0464A4B18684A4901230E2203F026F9E3
S2140024E0031EF6D1C046454B5B79DBB2012BFAD111
S2140024F0424B00225A71424B1B781B0219B2404BCA
S2140025005B781AB20E23FB180A431A800E23FB18B8
S21400251000229B5E180000F08DF8021C7B681A6093
S214002520374B9B781B0219B2354BDB781AB20E2359
S214002530FB180A431A800E23FB1800229B5E180025
S21400254000F078F8021C7B685A602D4B1B791B0242
S21400255019B22B4B5B791AB20E23FB180A431A806A
S2140025600E23FB1800229B5E180000F063F8021C86
S2140025707B689A60224B1B7A1B0219B2204B5B7A4F
S2140025801AB20E23FB180A431A800E23FB180022E9
S2140025909B5E180000F036F8021C7B68DA60184B69
S2140025A09B7A1B0219B2164BDB7A1AB20E23FB1863
S2140025B00A431A800E23FB1800229B5E180000F0C8
S2140025C021F8021C7B681A610D4B1B7B1B0219B29B
S2140025D00B4B5B7B1AB20E23FB180A431A800E23A2
S2140025E0FB1800229B5E180000F00CF8021C7B68AB
S2140025F05A6100231800BD4604B080BD341F002079
S214002600F8F6FF1F80B582B000AF0200BB1D1A802F
S214002610BB1D00229B5E180011F0E0FD031C044960
S214002620181C11F007FB031C181CBD4602B080BD29
S2140026302D23FA3B80B582B000AF0200BB1D1A8086
S214002640BB1D00229B5E180011F0C8FD031C044948
S214002650181C11F0EFFA031C181CBD4602B080BD12
S214002660C3F51C3A80B582B000AF7860234B1800E3
S21400267004F0E4FA0200214B1A60214B180003F024
S2140026806DFF02001E4B1A601E4B180003F0CCFFB5
S21400269002001C4B1A601C4B180004F02BF80200BA
S2140026A0194B1A60194B180004F086F80200174BF5
S2140026B01A60174B180004F0E1F80200144B1A6079
S2140026C0144B180004F03CF90200124B1A60124B2F
S2140026D000221A60104B00225A600F4B00229A60AC
S2140026E00D4B0022DA600C4B00221A610A4B0022C6
S2140026F05A61C046BD4602B080BDC046501F00208D
S214002700841F0020641F0020801F00204C1F002014
S214002710601F00203C1F002008F7FF1F80B586B012
S21400272000AF2B4B1B68C72B2FDC3B00002118008B
S21400273000F056F8274B1A683B001B68191C101C43
S21400274010F038FF031C1A1C224B1A60214BDA6863
S2140027503B00DB68191C101C10F02CFF031C1A1C15
S2140027601C4BDA601B4B9A683B009B68191C101CBC
S21400277010F020FF031C1A1C164B9A60144B1B68A3
S2140027805A1C134B1A6000231EE0124B1B6812499A
S214002790181C11F085F8031C1A1C104B1A600D4B00
S2140027A0DB680D49181C11F07BF8031C1A1C0B4B38
S2140027B0DA60084B9B680849181C11F071F8031C76
S2140027C01A1C064B9A6001231800BD4606B080BD51
S2140027D020F7FF1F24F7FF1F0000484308F7FF1FDE
S2140027E0F0B587B000AF786039601623FB18180084
S2140027F000F06EF91023FB18180000F0E5F912231C
S214002800FB18180000F05CFA1423FB18180000F000
S214002810D3FA0E23FB18180000F04AFB0C23FB1813
S214002820180000F0CFFB3B68012B23D11623FB18C2
S2140028301B881622BA181100180000F049FD142350
S214002840FB181B881422BA181100180000F09AFD15
S2140028501223FB181B881222BA181100180000F069
S214002860EBFD1023FB181B881022BA181100180065
S21400287000F03CFE1623FB181B88180011F0F6FC2F
S214002880031C181C13F0E6FA8C4A8D4B12F07CFCE5
S21400289003000C001800210002000B0011F024FDBC
S2140028A003000C0025001C00864B1B68181C13F048
S2140028B0D1FA02000B002000290012F0DFFE030010
S2140028C00C001800210013F019FB021C7B681A602C
S2140028D07B680C331C001423FB181B88180011F0AF
S2140028E0C5FC031C181C13F0B5FA744A744B12F09E
S2140028F04BFC02000B001000190002000B0011F048
S214002900F3FC02000B0015001E006E4BDB68181C63
S21400291013F0A0FA02000B002800310012F0AEFE01
S21400292002000B001000190013F0E8FA031C2360E5
S2140029307B6808331C001223FB181B88180011F054
S21400294095FC031C181C13F085FA5C4A5C4B12F0CD
S2140029501BFC02000B001000190002000B0011F017
S214002960C3FC02000B0015001E00564B9B68181C8B
S21400297013F070FA02000B002800310012F07EFE01
S21400298002000B001000190013F0B8FA031C2360B5
S2140029907B681C1D1023FB181B88180011F066FCB2
S2140029A0031C181C13F056FA0022474B12F066FE62
S2140029B002000B0010001900404A414B12F0E4FBE5
S2140029C002000B00100019000022404B12F056FEC9
S2140029D002000B001000190002000B0011F084FC2E
S2140029E002000B001000190013F088FA031C236085
S2140029F07B6810331C000E23FB181B88180011F090
S214002A0035FC031C181C13F025FA00222E4B12F07E
S214002A1035FE02000B0010001900284A284B12F061
S214002A20B3FB02000B00100019000022274B12F027
S214002A3025FE02000B001000190002000B0011F02A
S214002A4053FC02000B001000190013F057FA031C89
S214002A5023607B6814331C000C23FB181B881800AB
S214002A6011F004FC031C181C13F0F4F90022164B9A
S214002A7012F004FE02000B00100019000F4A104B63
S214002A8012F082FB02000B001000190000220F4B10
S214002A9012F0F4FD02000B001000190002000B00FB
S214002AA011F022FC02000B001000190013F026FAA9
S214002AB0031C2360C046BD4607B0F0BDFCA9F1D29A
S214002AC04D62503F08F7FF1F00408F400000E03F78
S214002AD080B584B000AF78600F23FB1800221A7010
S214002AE0344B1A88334B5B889A420DD90C23FB185B
S214002AF0304A12881A802F4B5A882E4B1A802D4B3C
S214002B000C22BA1812885A802A4B9B79012B46D180
S214002B10284BDB795BB2012B41D1264B5B881A0030
S214002B20244B1B88D31A180011F058FB031C2249AB
S214002B30181C11F07FF8031C2049181C10F0B0FE7A
S214002B40031C181C10F000FD03009AB2194B9A8063
S214002B50184B9A88FA239B009A4211D9154B9B88EA
S214002B60174A93420CD8134B9A887B681A807B6866
S214002B701A88144B1A800F23FB1801221A7007E0DC
S214002B80104B1A887B681A800F23FB1800221A70D5
S214002B90084B00229A71074B0022DA7103E0094BBA
S214002BA01A887B681A800F23FB181B781800BD460E
S214002BB004B080BD881F002000247449031B3749D9
S214002BC0CF0700003CF7FF1F80B584B000AF7860E9
S214002BD00F23FB1800221A70344B1A88334B5B887D
S214002BE09A420DD90C23FB18304A12881A802F4BB4
S214002BF05A882E4B1A802D4B0C22BA1812885A80EF
S214002C002A4B9B79012B46D1284BDB795BB2012BF3
S214002C1041D1264B5B881A00244B1B88D31A180018
S214002C2011F0DCFA031C2249181C11F003F8031CEF
S214002C302049181C10F034FE031C181C10F084FCED
S214002C4003009AB2194B9A80184B9A88FA239B0075
S214002C509A4211D9154B9B88174A93420CD8134BAE
S214002C609A887B681A807B681A88144B1A800F2310
S214002C70FB1801221A7007E0104B1A887B681A802E
S214002C800F23FB1800221A70084B00229A71074B7C
S214002C900022DA7103E0094B1A887B681A800F233A
S214002CA0FB181B781800BD4604B080BD741F0020BA
S214002CB000247449031B3749CF0700003EF7FF1F67
S214002CC080B584B000AF78600F23FB1800221A701E
S214002CD0344B1A88334B5B889A420DD90C23FB1869
S214002CE0304A12881A802F4B5A882E4B1A802D4B4A
S214002CF00C22BA1812885A802A4B9B79012B46D18F
S214002D00284BDB795BB2012B41D1264B5B881A003E
S214002D10244B1B88D31A180011F060FA031C2249B2
S214002D20181C10F087FF031C2049181C10F0B8FD73
S214002D30031C181C10F008FC03009AB2194B9A806A
S214002D40184B9A88FA239B009A4211D9154B9B88F8
S214002D50174A93420CD8134B9A887B681A807B6874
S214002D601A88144B1A800F23FB1801221A7007E0EA
S214002D70104B1A887B681A800F23FB1800221A70E3
S214002D80084B00229A71074B0022DA7103E0094BC8
S214002D901A887B681A800F23FB181B781800BD461C
S214002DA004B080BD541F002000247449031B37491B
S214002DB0CF07000040F7FF1F80B584B000AF7860F3
S214002DC00F23FB1800221A70344B1A88334B5B888B
S214002DD09A420DD90C23FB18304A12881A802F4BC2
S214002DE05A882E4B1A802D4B0C22BA1812885A80FD
S214002DF02A4B9B79012B46D1284BDB795BB2012B02
S214002E0041D1264B5B881A00244B1B88D31A180026
S214002E1011F0E4F9031C2249181C10F00BFF031CE8
S214002E202049181C10F03CFD031C181C10F08CFBED
S214002E3003009AB2194B9A80184B9A88FA239B0083
S214002E409A4211D9154B9B88174A93420CD8134BBC
S214002E509A887B681A807B681A88144B1A800F231E
S214002E60FB1801221A7007E0104B1A887B681A803C
S214002E700F23FB1800221A70084B00229A71074B8A
S214002E800022DA7103E0094B1A887B681A800F2348
S214002E90FB181B781800BD4604B080BD401F0020FC
S214002EA000247449031B3749CF07000042F7FF1F71
S214002EB080B584B000AF78600F23FB1800221A702C
S214002EC03B4B1A883A4B5B889A420DD90C23FB1869
S214002ED0374A12881A80364B5A88354B1A80344B3C
S214002EE00C22BA1812885A80314B9B79012B4FD18D
S214002EF02F4BDB795BB2012B4AD12D4B5B881A0036
S214002F002B4B1B88D31A180011F068F9031C2949AB
S214002F10181C10F08FFE031C2749181C10F0C0FC6C
S214002F20031C181C10F010FB03009AB2204B9A806A
S214002F301F4B9A88FA239B009A4215D91C4B9B88F4
S214002F401E4A934210D81A4B9A887B681A807B6870
S214002F501B88180011F08AF9021C194B1A600F23FF
S214002F60FB1801221A700CE0154B1B68181C10F099
S214002F70EBFA03009AB27B681A800F23FB18002234
S214002F801A700B4B00229A71094B0022DA7108E086
S214002F900B4B1B68181C10F0D7FA03009AB27B681C
S214002FA01A800F23FB181B781800BD4604B080BD9E
S214002FB0681F002000247449031B3749CF07000010
S214002FC044F7FF1F80B584B000AF78600F23FB186E
S214002FD000221A703B4B1A883A4B5B889A420DD9EE
S214002FE00C23FB18374A12881A80364B5A88354B02
S214002FF01A80344B0C22BA1812885A80314B9B79AF
S214003000012B4FD12F4BDB795BB2012B4AD12D4BD5
S2140030105B881A002B4B1B88D31A180011F0DEF8B9
S214003020031C2949181C10F005FE031C2749181C10
S21400303010F036FC031C181C10F086FA03009AB237
S214003040204B9A801F4B9A88FA239B009A4215D9E8
S2140030501C4B9B881E4A934210D81A4B9A887B6852
S2140030601A807B681B88180011F000F9021C194BA7
S2140030701A600F23FB1801221A700CE0154B1B6810
S214003080181C10F061FA03009AB27B681A800F23AE
S214003090FB1800221A700B4B00229A71094B002273
S2140030A0DA7108E00B4B1B68181C10F04DFA030091
S2140030B09AB27B681A800F23FB181B781800BD464F
S2140030C004B080BD941F002000247449031B3749B8
S2140030D0CF07000048F7FF1F80B500AF114B9B7964
S2140030E0002B0BD1104B180003F0E4FD03001A0070
S2140030F00C4B1A800B4B01229A710FE0094BDB79BF
S2140031005BB2002B0AD1084B180003F0D3FD030076
S2140031101A00044B5A80034B0122DA71C046BD46A2
S21400312080BDC046881F0020501F002080B500AF1D
S214003130114B9B79002B0BD1104B180003F0BAFDF6
S21400314003001A000C4B1A800B4B01229A710FE0F9
S214003150094BDB795BB2002B0AD1084B180003F051
S214003160A9FD03001A00044B5A80034B0122DA71B2
S214003170C046BD4680BDC046741F0020501F0020BC
S21400318080B500AF114B9B79002B0BD1104B18006C
S21400319003F090FD03001A000C4B1A800B4B012223
S2140031A09A710FE0094BDB795BB2002B0AD1084B12
S2140031B0180003F07FFD03001A00044B5A80034BEF
S2140031C00122DA71C046BD4680BDC046541F0020AD
S2140031D0501F002080B500AF114B9B79002B0BD100
S2140031E0104B180003F066FD03001A000C4B1A8003
S2140031F00B4B01229A710FE0094BDB795BB2002B77
S2140032000AD1084B180003F055FD03001A00044BC2
S2140032105A80034B0122DA71C046BD4680BDC046C7
S214003220401F0020501F002080B500AF114B9B7937
S214003230002B0BD1104B180003F03CFD03001A00C6
S2140032400C4B1A800B4B01229A710FE0094BDB796D
S2140032505BB2002B0AD1084B180003F02BFD0300CD
S2140032601A00044B5A80034B0122DA71C046BD4651
S21400327080BDC046681F0020501F002080B500AFEC
S214003280114B9B79002B0BD1104B180003F012FD4D
S21400329003001A000C4B1A800B4B01229A710FE0A8
S2140032A0094BDB795BB2002B0AD1084B180003F000
S2140032B001FD03001A00044B5A80034B0122DA7109
S2140032C0C046BD4680BDC046941F0020501F00204B
S2140032D090B585B000AF02003960BB1D1A800E2382
S2140032E0FB1800221A800023BB600BE0BB685A1C48
S2140032F0214B5200D15A204BBA685200D152BB68BB
S2140033000133BB60BB68042BF0DD1B4BBA1D128873
S2140033105A810023BB600DE0174BBA685200D15AA1
S2140033200E23FB180E22BA1812888A181A80BB6859
S2140033300133BB60BB68052BEEDD0E23FB181B8834
S214003340180012F045FD0D4A0D4B11F01DFF03004D
S2140033500C001A0023000E217C181000190010F033
S2140033600BF9030023803B680E22BA1812881A80D5
S214003370C046BD4605B090BD4CF7FF1F736891ED83
S2140033807C3FC53F90B585B000AF02003960BB1DDD
S2140033901A800E23FB1800221A800023BB600BE065
S2140033A0BB685A1C214B5200D15A204BBA685200B7
S2140033B0D152BB680133BB60BB68042BF0DD1B4BEE
S2140033C0BA1D12885A810023BB600DE0174BBA68FD
S2140033D05200D15A0E23FB180E22BA1812888A18E9
S2140033E01A80BB680133BB60BB68052BEEDD0E237D
S2140033F0FB181B88180012F0EBFC0D4A0D4B11F061
S214003400C3FE03000C001A0023000E217C181000D7
S214003410190010F0B1F8030023803B680E22BA189A
S21400342012881A80C046BD4605B090BD58F7FF1FEB
S214003430736891ED7C3FC53F90B585B000AF020044
S2140034403960BB1D1A800E23FB1800221A80002349
S214003450BB600BE0BB685A1C214B5200D15A204B74
S214003460BA685200D152BB680133BB60BB68042BFC
S214003470F0DD1B4BBA1D12885A810023BB600DE09D
S214003480174BBA685200D15A0E23FB180E22BA18F0
S21400349012888A181A80BB680133BB60BB68052B8C
S2140034A0EEDD0E23FB181B88180012F091FC0D4A67
S2140034B00D4B11F069FE03000C001A0023000E21CC
S2140034C07C181000190010F057F8030023803B68A2
S2140034D00E22BA1812881A80C046BD4605B090BDA6
S2140034E064F7FF1F736891ED7C3FC53F90B585B0CC
S2140034F000AF02003960BB1D1A800E23FB180022A5
S2140035001A800023BB600BE0BB685A1C214B52009C
S214003510D15A204BBA685200D152BB680133BB6007
S214003520BB68042BF0DD1B4BBA1D12885A810023A2
S214003530BB600DE0174BBA685200D15A0E23FB1839
S2140035400E22BA1812888A181A80BB680133BB602C
S214003550BB68052BEEDD0E23FB181B88180012F047
S21400356037FC0D4A0D4B11F00FFE03000C001A003D
S21400357023000E217C18100019000FF0FDFF030039
S21400358023803B680E22BA1812881A80C046BD46B1
S21400359005B090BD70F7FF1F736891ED7C3FC53F87
S2140035A080B500AF0F4B180003F0B6FC02000D4BC1
S2140035B01A600D4B180003F073FD02000A4B1A60E8
S2140035C00A4B180003F030FE0200084B1A60084B46
S2140035D0180003F0EDFE0200054B1A60C046BD461B
S2140035E080BDC046B01F0020A81F0020A01F0020DE
S2140035F0B81F002080B582B000AF78607B680433C7
S2140036001B68181C00F066F803001A00114B9A801D
S2140036107B681B68181C00F05DF803001A000E4B50
S2140036209A807B6808331B68181C00F053F8030068
S2140036301A000A4B9A807B680C331B68181C00F033
S21400364049F803001A00064B9A80C046BD4602B0F1
S21400365080BDC046B01F0020A81F0020A01F00206D
S214003660B81F002080B500AF044B9A88034B1100AA
S214003670180003F07DFCC046BD4680BDB01F00208C
S21400368080B500AF044B9A88034B1100180003F076
S21400369033FDC046BD4680BDA81F002080B500AFE4
S2140036A0044B9A88034B1100180003F0E9FDC0464E
S2140036B0BD4680BDA01F002080B500AF044B9A8891
S2140036C0034B1100180003F09FFEC046BD4680BDA8
S2140036D0B81F002090B583B000AF7860786812F00D
S2140036E0B9FB154A154B11F04FFD03000C001800EE
S2140036F02100134A134B10F0F7FD03000C001800CE
S21400370021000F4A104B10F0EFFD03000C001800CC
S214003710210000220D4B10F0E7FD03000C001800FE
S21400372021000FF029FF03009BB2DB439BB2180079
S214003730BD4603B090BDC046CDCCCCCCCC42DB4021
S2140037409A9999999999A94099999940007CD54058
S21400375080B500AF00F07EF900F090F9C046BD4697
S21400376080BDC04690B589B000AFF860B9607A6099
S2140037703B6000233B610023FB610023BB61002309
S2140037807B610021386B0FF0CBFE031E00D139E1C0
S214003790386812F05FFB0022A84B10F0A5FD03006E
S2140037A00C00180021000022A54B11F0EDFC0300D0
S2140037B00C001800210012F0A1FB031C3B61002145
S2140037C0786B0FF099FE031E27D09E49F86810F01C
S2140037D031FA031C1A1C3B6D191C101C00F0F2FA7F
S2140037E0031C7B619749786810F024FA031C1A1CA6
S2140037F0BB6C191C101C00F055F9031CFB619149A9
S214003800B86810F017FA031C1A1CFB6C191C101C65
S21400381000F010FA031CBB613AE00021786B0FF051
S2140038207FFE031E34D08749F86810F003FA031CA5
S2140038301A1C3B6D191C101C00F0C4FA031C7B619B
S214003840FA218905786810F0F5F9031C1A1CFB6D3F
S214003850191C101C00F098FC021CBB6C191C101CD8
S21400386000F020F9031CFB61FA218905B86810F006
S214003870E1F9031C1A1CBB6D191C101C00F0E8FBB8
S214003880021CFB6C191C101C00F0D4F9031CBB6155
S214003890F969B86910F0E2FA031C7969181C0FF090
S2140038A089FE031C3969181C0FF084FE031C1A1CC1
S2140038B0BB6B1A60B969F8690FF07CFE031C796966
S2140038C0181C10F0CBFA031C3969181C0FF072FE96
S2140038D0031C1A1CFB6B1A60FB69802212065340FD
S2140038E0B969181C10F0BAFA031C7969181C10F094
S2140038F0B5FA031C3969181C0FF05CFE031C1A1C71
S2140039003B6C1A60B969F86910F0A8FA031C79696B
S214003910181C0FF04FFE031C3969181C0FF04AFEE6
S214003920031C1A1C7B6C1A60BB6B1B68181C12F0FD
S21400393091FA454A454B0FF0A5FD031E02D0BB6B1E
S214003940434A1A60FB6B1B68181C12F083FA3E4A47
S2140039503E4B0FF097FD031E02D0FB6B3C4A1A60ED
S2140039603B6C1B68181C12F075FA374A374B0FF081
S21400397089FD031E02D03B6C354A1A607B6C1B68BF
S214003980181C12F067FA304A304B0FF07BFD031E0E
S21400399002D07B6C2E4A1A60BB6B1B68FE21890521
S2140039A0181C0FF0BDFD031E03D0BB6BFE22920554
S2140039B01A60FB6B1B68FE218905181C0FF0B0FD12
S2140039C0031E03D0FB6BFE2292051A603B6C1B683D
S2140039D0FE218905181C0FF0A3FD031E03D03B6CC7
S2140039E0FE2292051A607B6C1B68FE218905181C56
S2140039F00FF096FD031E00D11BE07B6CFE229205A5
S214003A001A6016E00021386B0FF076FD031E00D119
S214003A100FE0BB6B00221A60FB6B00221A603B6C47
S214003A2000221A607B6C00221A6000F013F800F087
S214003A3025F8C046BD4609B090BDC0460000F03F20
S214003A400000E03F0000C8429A9999999999C93FA9
S214003A50CDCC4C3E80B500AF054B01221A60054B1D
S214003A6001221A60044B01221A60C046BD4680BD82
S214003A7058F0FF1F54F0FF1F5CF0FF1F80B500AF2B
S214003A80054B01221A60054B01221A60044B0122E5
S214003A901A60C046BD4680BD64F0FF1F60F0FF1F81
S214003AA068F0FF1F90B58BB000AF786039600023D8
S214003AB07B6200233B62534BFB61534BBB61534B12
S214003AC07B61534B3B61534B1B68012B0BD1514B16
S214003AD000221A60504B00221A60504B00221A60D7
S214003AE04F4B00221A603968786810F0B7F9031C4B
S214003AF03B624B4B1B68396A181C0FF05BFD031CBE
S214003B00FC218905181C10F095F8031C3969181C4F
S214003B1010F090F8031C1A1C3F4B1B68191C101C55
S214003B200FF048FD031C1A1C3B4B1A603C4B1B68ED
S214003B30191C386A10F092F9031C181C12F08AF946
S214003B400022384B11F020FB03000C001800210067
S214003B5012F008F902000C23FB181900100000F000
S214003B60AFFBFB68180010F039FB031C181C12F0A2
S214003B7071F92D4A2D4B11F007FB03000C001800BD
S214003B80210012F0BBF9021C244B1A60396AF8694E
S214003B9010F050F8031C1C1C1F4B1B68B969181C3E
S214003BA010F048F8031C191C201C0FF003FD031C22
S214003BB01C1C1A4B1B687969181C10F03BF8031C78
S214003BC0191C201C0FF0F6FC031C7B62FE218905E5
S214003BD0786A0FF0A5FC031E03D0FE239B057B62CC
S214003BE007E01349786A0FF087FC031E01D0104BDC
S214003BF07B620B4B3A6A1A607B6A181CBD460BB098
S214003C0090BDC0466F12833A77CC2B3282A87B37A2
S214003C1000007A4454F0FF1F7CF7FF1F80F7FF1F59
S214003C2084F7FF1F0088C3409A9999999999B93FDC
S214003C30000080BF90B58BB000AF7860396000237D
S214003C407B6200233B62534BFB61534BBB61534B80
S214003C507B61534B3B61534B1B68012B0BD1514B84
S214003C6000221A60504B00221A60504B00221A6045
S214003C704F4B00221A603968786810F0EFF8031C82
S214003C803B624B4B1B68396A181C0FF093FC031CF5
S214003C90FC218905181C0FF0CDFF031C3969181C80
S214003CA00FF0C8FF031C1A1C3F4B1B68191C101C86
S214003CB00FF080FC031C1A1C3B4B1A603C4B1B6825
S214003CC0191C386A10F0CAF8031C181C12F0C2F847
S214003CD00022384B11F058FA03000C00180021009F
S214003CE012F040F802000C23FB181900100000F038
S214003CF023FBFB68180010F071FA031C181C12F066
S214003D00A9F82D4A2D4B11F03FFA03000C001800BD
S214003D10210012F0F3F8021C244B1A60396AF86985
S214003D200FF088FF031C1C1C1F4B1B68B969181C6E
S214003D300FF080FF031C191C201C0FF03BFC031C1B
S214003D401C1C1A4B1B687969181C0FF073FF031CA8
S214003D50191C201C0FF02EFC031C7B62FE2189051B
S214003D60786A0FF0DDFB031E03D0FE239B057B6203
S214003D7007E01349786A0FF0BFFB031E01D0104B13
S214003D807B620B4B3A6A1A607B6A181CBD460BB006
S214003D9090BDC0466F12833A77CC2B3282A87B3711
S214003DA000007A445CF0FF1F88F7FF1F8CF7FF1FA8
S214003DB090F7FF1F0088C3409A9999999999B93F3F
S214003DC0000080BF90B589B000AF786039600023EE
S214003DD0FB610023BB61444B7B61444B3B6100238A
S214003DE0FB60434BBB60434B1B68012B0BD1414B25
S214003DF000221A60404B00221A60404B00221A60D4
S214003E003F4B00221A603968786810F027F8031CC8
S214003E10BB613B4B1B68B969181C0FF0CBFB031C3E
S214003E20FC218905181C0FF005FF031CB968181C37
S214003E300FF000FF031C1A1C2F4B1B68191C101CCC
S214003E400FF0B8FB031C1A1C2B4B1A602C4B1B687C
S214003E50191CB86910F002F8031CB968181C0FF09A
S214003E60E9FE031C1A1C254B1A60B96978690FF025
S214003E70E1FE031C1C1C204B1B683969181C0FF044
S214003E80D9FE031C191C201C0FF094FB031C1C1CE1
S214003E901A4B1B68F968181C0FF0CCFE031C191C83
S214003EA0201C0FF087FB031CFB61F86911F0D2FFA2
S214003EB0144A154B0FF0FAFA031E02D0134BFB619F
S214003EC00AE0F86911F0C6FF0E4A114B0FF0DAFA55
S214003ED0031E01D00F4BFB61094BBA691A60FB69E0
S214003EE0181CBD4609B090BDA69BC43A77CC2B32B1
S214003EF000007A4458F0FF1F94F7FF1F98F7FF1F43
S214003F009CF7FF1F9A9999999999D93FCDCCCC3EA9
S214003F109999D9BFCDCCCCBE90B589B000AF7860AA
S214003F2039600023FB610023BB61414B7B610023AA
S214003F303B610023FB603F4BBB603F4B1B68012B84
S214003F400BD13D4B00221A603C4B00221A603C4BC2
S214003F5000221A603B4B00221A60396878680FF01E
S214003F607DFF031CBB61374B1B68B969181C0FF03B
S214003F7021FB031CFC218905181C0FF05BFE031CAB
S214003F80B968181C0FF056FE031C1A1C2B4B1B6836
S214003F90191C101C0FF00EFB031C1A1C274B1A6072
S214003FA0284B1B68191CB8690FF058FF031CB9682A
S214003FB0181C0FF03FFE031C1A1C214B1A60B9692F
S214003FC078690FF037FE031C1C1C1C4B1B683969F4
S214003FD0181C0FF02FFE031C191C201C0FF0EAFA09
S214003FE0031C1C1C164B1B68F968181C0FF022FEDD
S214003FF0031C191C201C0FF0DDFA031CFB61124980
S214004000F8690FF08DFA031E02D00F4BFB6107E034
S2140040100E49F8690FF070FA031E01D00B4BFB61D6
S214004020084BBA691A60FB69181CBD4609B090BDFA
S21400403017B7513900007A4464F0FF1FA0F7FF1F3E
S214004040A4F7FF1FA8F7FF1F00004843000048C35F
S21400405090B589B000AF786039600023FB6100231B
S214004060BB61414B7B6100233B610023FB603F4B00
S214004070BB603F4B1B68012B0BD13D4B00221A60E7
S2140040803C4B00221A603C4B00221A603B4B00223D
S2140040901A60396878680FF0E1FE031CBB61374B85
S2140040A01B68B969181C0FF085FA031CFC218905EA
S2140040B0181C0FF0BFFD031CB968181C0FF0BAFDE2
S2140040C0031C1A1C2B4B1B68191C101C0FF072FAD1
S2140040D0031C1A1C274B1A60284B1B68191CB8694E
S2140040E00FF0BCFE031CB968181C0FF0A3FD031CE0
S2140040F01A1C214B1A60B96978690FF09BFD031CE6
S2140041001C1C1C4B1B683969181C0FF093FD031C04
S214004110191C201C0FF04EFA031C1C1C164B1B68A7
S214004120F968181C0FF086FD031C191C201C0FF0E4
S21400413041FA031CFB611249F8690FF0F1F9031EFE
S21400414002D00F4BFB6107E00E49F8690FF0D4F977
S214004150031E01D00B4BFB61084BBA691A60FB6962
S214004160181CBD4609B090BD0000964300007A4476
S21400417068F0FF1FACF7FF1FB0F7FF1FB4F7FF1F75
S21400418000004843000048C390B589B000AF78608F
S21400419039600023FB610023BB61414B7B61002338
S2140041A03B610023FB603F4BBB603F4B1B68012B12
S2140041B00BD13D4B00221A603C4B00221A603C4B50
S2140041C000221A603B4B00221A60396878680FF0AC
S2140041D045FE031CBB61374B1B68B969181C0FF002
S2140041E0E9F9031CFC218905181C0FF023FD031CAC
S2140041F0B968181C0FF01EFD031C1A1C2B4B1B68FD
S214004200191C101C0FF0D6F9031C1A1C274B1A6039
S214004210284B1B68191CB8690FF020FE031CB968F0
S214004220181C0FF007FD031C1A1C214B1A60B969F5
S21400423078690FF0FFFC031C1C1C1C4B1B683969BB
S214004240181C0FF0F7FC031C191C201C0FF0B2F909
S214004250031C1C1C164B1B68F968181C0FF0EAFCA4
S214004260031C191C201C0FF0A5F9031CFB61124946
S214004270F8690FF055F9031E02D00F4BFB6107E0FB
S2140042800E49F8690FF038F9031E01D00B4BFB619D
S214004290084BBA691A60FB69181CBD4609B090BD88
S2140042A00000964300007A4460F0FF1FB8F7FF1F37
S2140042B0BCF7FF1FC0F7FF1F00004843000048C3BD
S2140042C080B584B000AF786039600023FB600023BF
S2140042D0BB600BE0BB685A1C164B9200D158154BBE
S2140042E0BA689200D150BB680133BB60BB68032B31
S2140042F0F0DD104B7A681A610023BB6009E00D4BB5
S214004300BA689200D358FA68D318FB60BB680133CA
S214004310BB60BB68042BF2DDFB68052118000EF0BD
S214004320AFFF0300FB603B68FA681A60C046BD46F4
S21400433004B080BDC4F7FF1F80B584B000AF7860BE
S21400434039600023FB600023BB600BE0BB685A1C8F
S214004350164B9200D158154BBA689200D150BB68E4
S2140043600133BB60BB68032BF0DD104B7A681A6123
S2140043700023BB6009E00D4BBA689200D358FA6878
S214004380D318FB60BB680133BB60BB68042BF2DD4F
S214004390FB68052118000EF073FF0300FB603B6806
S2140043A0FA681A60C046BD4604B080BDD8F7FF1F45
S2140043B0B0B592B000AFF860B9607A603B60342365
S2140043C0FB1800221A603423FB1800225A6034239C
S2140043D0FB1800229A602823FB1800221A60282364
S2140043E0FB1800225A602823FB1800229A6000233C
S2140043F07B64BB68180000F007FA031C3B642823A4
S214004400FB1800221A60BB681B68802212065A40FE
S2140044101400BB6804331A68BB6804331B68191C95
S214004420101C0FF007FC031C1D1CBB6808331A6821
S214004430BB6808331B68191C101C0FF0FBFB031C21
S214004440191C281C0FF0B6F8031C181C12F00CFBE5
S214004450031C191C201C12F003FB021C80231B06E5
S2140044605A402823FB185A60BB6804331A68BB6896
S21400447008331B68191C101C0FF012FA031C181CBA
S21400448011F0E4FE021C2823FB189A6001237B64CB
S214004490794B1B68012B0FD1774B00221A60774BA4
S2140044A0FE2292051A60754BFE2292055A60734BE7
S2140044B0FE2292059A6077E01C23FB1818000C2356
S2140044C01A00002114F0E2FEFB681B686C49181CF9
S2140044D00FF0B0FB031C1A1C1C23FB181A60FB68A9
S2140044E004331B686649181C0FF0A4FB031C1A1C37
S2140044F01C23FB185A60FB6808331B686049181CAD
S2140045000FF098FB031C1A1C1C23FB189A60102340
S214004510FB1800221A601023FB1800225A60102392
S214004520FB1800229A60554A1C23F9181023FB1822
S214004530180000F0ABF8514B1C681023FB181B68E2
S2140045403968181C0FF076FB031C191C201C0FF092
S21400455031F8031C1A1C3423FB181A60474B5C689E
S2140045601023FB185B683968181C0FF063FB031CEC
S214004570191C201C0FF01EF8031C1A1C3423FB18F1
S2140045805A603E4B9C681023FB189B683968181CC1
S2140045900FF050FB031C191C201C0FF00BF8031C1B
S2140045A01A1C3423FB189A607B6C002B0FD1342323
S2140045B0FB181A68314B1A603423FB185A682F4BC5
S2140045C05A603423FB189A682C4B9A6041E07B6C47
S2140045D0012B3ED13423FB181A68284B1A6034236B
S2140045E0FB185B682749181C0FF024FB031C1A1CD9
S2140045F0224B5A60214B5C682823FB185B682249D3
S214004600181C0FF017FB031C191C201C0EF0D2FF01
S214004610031C1A1C194B5A603423FB189B68194953
S214004620181C0FF007FB031C1A1C144B9A60134B44
S2140046309C682823FB189B681349181C0FF0FAFA8D
S214004640031C191C201C0EF0B5FF031C1A1C0B4B78
S2140046509A600A4B1A687B681A607B680433074ABC
S21400466052681A607B680833044A92681A60C0462B
S214004670BD4612B0B0BDC0466CF0FF1FECF7FF1F82
S21400468035FA8E3CA4707D3F0AD7233CB0B588B07F
S21400469000AFF860B9607A607B6808331B68181C46
S2140046A011F032FF031CFB617B6808331B68181C83
S2140046B011F0E8FE031CBB617B6804331B68181C02
S2140046C011F0E0FE031C7B617B6804331B68181C3A
S2140046D011F058FF031C3B61786911F0BBFB474A99
S2140046E0474B0EF0E3FE031E6ED0FB6808331C003B
S2140046F0BB681D68BB6804331B68F969181C0FF09B
S21400470099FA031C3969181C0FF094FA031C191C3B
S214004710281C0EF04FFF031C1D1CBB6808331B68CB
S214004720F969181C0FF086FA031C3969181C0FF07B
S21400473081FA031C191C281C0EF03CFF031C236086
S214004740FB681C1DBB6804331B688022120653409E
S214004750B969181C0FF06EFA031C1D1CBB680833E1
S2140047601B68F969181C0FF065FA031C191C281C35
S2140047700FF074FB031C1A1C80231B065340236097
S214004780BB6804331B68F969181C0FF053FA031C46
S2140047907969181C0FF084F8031C1C1CBB680833CE
S2140047A01B68B969181C0FF045FA031C7969181CB8
S2140047B00FF076F8031C191C201C0EF0FBFE031CE1
S2140047C01A1CFB681A6015E0FB680E4A1A60FB6844
S2140047D004330C4A1A60FB6808330A4A1A607B687E
S2140047E000221A607B68043300221A607B68083354
S2140047F000221A60C046BD4608B0B0BD8DEDB5A01B
S214004800F7C6B03E6F12833A90B583B000AF7860BB
S2140048107B681A687B681B68191C101C0FF00AFA64
S214004820031C1C1C7B6804331A687B6804331B68F3
S214004830191C101C0FF0FEF9031C191C201C0EF08E
S214004840B9FE031C1C1C7B6808331A687B68083397
S2140048501B68191C101C0FF0EDF9031C191C201CFA
S2140048600EF0A8FE031C181C12F0FEF8031C181C01
S214004870BD4603B090BDC04690B585B000AF786029
S21400488039600023FB600023BB600BE0BB685A1C4A
S214004890294B9200D158284BBA689200D150BB6879
S2140048A00133BB60BB68002BF0DD786811F0D2FAEC
S2140048B00022224B10F068FC03000C0018002100B8
S2140048C011F050FA02001C4B5A600023BB6009E04E
S2140048D0194BBA689200D358FA68D318FB60BB68C5
S2140048E00133BB60BB68012BF2DDF86811F070FA8B
S2140048F00022134B10F048FC03000C0018002100A7
S21400490011F030FA0300FB60F8680FF067FC031C38
S214004910181C11F09FFA0B4A0B4B10F035FC0300E5
S2140049200C001800210011F0E9FA021C3B681A601E
S214004930C046BD4605B090BDF8F7FF1F00002440F6
S2140049400000E03F9A9999999999B93F90B585B03A
S21400495000AF786039600023FB600023BB600BE08B
S214004960BB685A1C294B9200D158284BBA68920053
S214004970D150BB680133BB60BB68002BF0DD7868A4
S21400498011F068FA0022224B10F0FEFB03000C0028
S2140049901800210011F0E6F902001C4B5A600023B3
S2140049A0BB6009E0194BBA689200D358FA68D3186E
S2140049B0FB60BB680133BB60BB68012BF2DDF868A7
S2140049C011F006FA0022134B10F0DEFB03000C0079
S2140049D01800210011F0C6F90300FB60F8680FF01C
S2140049E0FDFB031C181C11F035FA0B4A0B4B10F09C
S2140049F0CBFB03000C001800210011F07FFA021C0C
S214004A003B681A60C046BD4605B090BD00F8FF1F63
S214004A10000024400000E03F9A9999999999B93F7F
S214004A2090B585B000AF786039600023FB60002346
S214004A30BB600BE0BB685A1C294B9200D158284B30
S214004A40BA689200D150BB680133BB60BB68002BCC
S214004A50F0DD786811F0FEF90022224B10F094FB8E
S214004A6003000C001800210011F07CF902001C4B1A
S214004A705A600023BB6009E0194BBA689200D3580D
S214004A80FA68D318FB60BB680133BB60BB68012BB8
S214004A90F2DDF86811F09CF90022134B10F074FB5D
S214004AA003000C001800210011F05CF90300FB6005
S214004AB0F8680FF093FB031C181C11F0CBF90B4A97
S214004AC00B4B10F061FB03000C001800210011F0E6
S214004AD015FA021C3B681A60C046BD4605B090BD7C
S214004AE008F8FF1F000024400000E03F9A999999BB
S214004AF09999B93F90B585B000AF786039600023CA
S214004B00FB600023BB600BE0BB685A1C294B92007D
S214004B10D158284BBA689200D150BB680133BB60AD
S214004B20BB68002BF0DD786811F094F90022224B68
S214004B3010F02AFB03000C001800210011F012F9F7
S214004B4002001C4B5A600023BB6009E0194BBA6890
S214004B509200D358FA68D318FB60BB680133BB6079
S214004B60BB68012BF2DDF86811F032F90022134B16
S214004B7010F00AFB03000C001800210011F0F2F8F8
S214004B800300FB60F8680FF029FB031C181C11F0EB
S214004B9061F90B4A0B4B10F0F7FA03000C001800F3
S214004BA0210011F0ABF9021C3B681A60C046BD46F6
S214004BB005B090BD10F8FF1F000059400000E03F10
S214004BC07B14AE47E17A843F90B585B000AF78603D
S214004BD039600023FB600023BB600BE0BB685A1CF7
S214004BE0294B9200D158284BBA689200D150BB6826
S214004BF00133BB60BB68002BF0DD786811F02AF942
S214004C000022224B10F0C0FA03000C00180021000E
S214004C1011F0A8F802001C4B5A600023BB6009E0A4
S214004C20194BBA689200D358FA68D318FB60BB6871
S214004C300133BB60BB68012BF2DDF86811F0C8F8E1
S214004C400022134B10F0A0FA03000C0018002100FD
S214004C5011F088F80300FB60F8680FF0BFFA031C39
S214004C60181C11F0F7F80B4A0B4B10F08DFA0300E6
S214004C700C001800210011F041F9021C3B681A6074
S214004C80C046BD4605B090BD18F8FF1F000059404D
S214004C900000E03F7B14AE47E17A843F90B585B0D4
S214004CA000AF786039600023FB600023BB600BE038
S214004CB0BB685A1C294B9200D158284BBA68920000
S214004CC0D150BB680133BB60BB68002BF0DD786851
S214004CD011F0C0F80022224B10F056FA03000C0028
S214004CE01800210011F03EF802001C4B5A60002309
S214004CF0BB6009E0194BBA689200D358FA68D3181B
S214004D00FB60BB680133BB60BB68012BF2DDF86853
S214004D1011F05EF80022134B10F036FA03000C0078
S214004D201800210011F01EF80300FB60F8680FF071
S214004D3055FA031C181C11F08DF80B4A0B4B10F09B
S214004D4023FA03000C001800210011F0D7F8021C0B
S214004D503B681A60C046BD4605B090BD20F8FF1FF0
S214004D60000059400000E03F7B14AE47E17A843FE4
S214004D7080B500AF054B4021180000F075F902F031
S214004D8095FC03009BB21800BD4680BD2CF8FF1FA3
S214004D9080B582B000AF786002E0052008F0DAFB4C
S214004DA07B68180002F03EFC031EF6D100231800B4
S214004DB0BD4602B080BDC04690B585B000AF0200CB
S214004DC0FB1D1A70FB1D1B78180003F0D7FA0300B2
S214004DD00B2B1DD10F23FC18104B4021180000F0A0
S214004DE043F9030023700F23FB181B780C2B01D10B
S214004DF01B230EE00F23FB181B78002B01D00B2380
S214004E0007E0FB1D1B78180003F0B8FA030000E06B
S214004E1000231800BD4605B090BDC0466CF8FF1FC5
S214004E2080B584B000AF78600A00BB1C1A800F23E0
S214004E30FB1800221A7012E07B681B781800FFF738
S214004E40BBFF031E03D00F23FB180B221A70BB1CDC
S214004E501A88BB1C013A1A807B6801337B60BB1C36
S214004E601B88002BE8D10F23FB181B781800BD46C3
S214004E7004B080BD80B584B000AF78600F23FB1807
S214004E8000221A700DE07B681B781800FFF794FF6D
S214004E90031E03D00F23FB180B221A707B68013306
S214004EA07B607B681B78002BEDD10F23FB181B78EB
S214004EB01800BD4604B080BD80B586B000AF3A602D
S214004EC0FB1D021C1A70BB1D0A1C1A70BB1D1B782A
S214004ED0002B03D1334B00221A705FE0BB1D1B78FA
S214004EE0022B09D100230022022100200BF022FF12
S214004EF02C4B01221A7051E0BB1D1B78042B35D1B8
S214004F00294B1B78DBB2012B30D13B683B613B69F8
S214004F109B880E22BA1899B2402900D940231380E4
S214004F201723FB1800221A7010E03B691A68172333
S214004F30FB181B78D3181B78180002F0FDFA17230D
S214004F40FB181A781723FB1801321A701723FB1860
S214004F501B789BB20E22BA1812889A42E5D8002314
S214004F600022022100200BF0E5FE17E0BB1D1B7897
S214004F70032B08D10C4B1B78DBB2012B03D10B4B58
S214004F8000221A700AE0BB1D1B78052B06D1054BC4
S214004F9000221A70044B00221A70FFE7C046BD4676
S214004FA006B080BD28F8FF1F29F8FF1F2AF8FF1F4C
S214004FB080B582B000AF3A60FB1D021C1A70BB1DA4
S214004FC00A1C1A700D4B1B78DBB2012B0ED1BB1DD1
S214004FD01B78222B03D10A4B01221A7006E0BB1D58
S214004FE01B78212B02D1064B00221A70044B01229B
S214004FF01A70C046BD4602B080BDC04628F8FF1FE6
S21400500029F8FF1F80B500AFC046BD4680BDC0462C
S21400501080B584B000AF78600A00BB1C1A800F23EE
S214005020FB1800221A700F4B01221A70BB1C1B883B
S2140050307A68012100200AF023FA031E06D0094BE5
S21400504000221A70122309E0FFF7DCFF054B1B78DD
S214005050DBB2002BF8D10F23FB181B781800BD46D7
S21400506004B080BD2AF8FF1F90B585B000AF786009
S2140050703960FFF7C7FF0AF05BFF284B1B78DBB2EF
S214005080012B46D1264B1B78DBB2012B41D103F016
S2140050902FFA031E3BD00023FB6002E0FB680133BF
S2140050A0FB60FA683B689A4207D27A68FB68D318B6
S2140050B0180003F0D9F9031EF0D0FB689AB20B2350
S2140050C0FC187B6811001800FFF7A2FF030023708E
S2140050D00B23FB181B78002B03D00B23FB181B7825
S2140050E018E0FB680722134011D10B23FC187B68DD
S2140050F000211800FFF78CFF030023700B23FB181A
S2140051001B78002B03D00B23FB181B7802E0002330
S21400511000E00C231800BD4605B090BD28F8FF1F20
S21400512029F8FF1F90B583B000AFFC1D00200AF0E1
S21400513077F9030023700A4B00221A70094B0022ED
S2140051401A70094B00221A70FB1D1B78002B01D029
S2140051501B2300E000231800BD4603B090BDC046E8
S21400516028F8FF1F29F8FF1F2AF8FF1F90B585B003
S21400517002AF124B00221A70114B00221A70114B0C
S21400518000221A7002F0A8FA03F0C8F9FC1D0E4AB5
S2140051900E49012300931300002200200AF092F823
S2140051A003002370FB1D1B78002B01D01B2300E09F
S2140051B000231800BD4603B090BDC04628F8FF1F68
S2140051C029F8FF1F2AF8FF1FB14F0000B94E000054
S2140051D090B585B000AF7860396003F093F90300AE
S2140051E01A003B689A4204D20F23FB180B221A704F
S2140051F01BE00F23FB1800221A700EE07B681B785A
S2140052000F22BC18180003F0B9F8030023703B689F
S214005210013B3B607B6801337B603B68002B04D01E
S2140052200F23FB181B78002BE8D00F23FB181B78E6
S2140052301800BD4605B090BD80B500AFFFF798FDDD
S21400524003005A1E9341DBB2DBB21800BD4680BD98
S21400525080B582B000AF78607B681800FFF798FDD5
S214005260031E02D07B6800221A70C046BD4602B0FC
S21400527080BDC04680B582B000AF0200FB1D1A702C
S214005280C046FB1D1B781800FFF796FD03000B2B8E
S214005290F7D0C046BD4602B080BDC04680B500AF60
S2140052A0024B1B78DBB21800BD4680BD28F8FF1FF6
S2140052B080B500AF024B1B78DBB21800BD4680BD40
S2140052C029F8FF1F80B500AF014B1800BD4680BD12
S2140052D01095010090B583B000AF7F4B1B687B60D4
S2140052E07E4BDB78DCB27D497C4BDB78DBB25BB295
S2140052F0122293435AB263B213435BB2DBB2CB7053
S214005300764B9B78DBB21A002023134000D1C2E014
S214005310724B9B78DBB21A001023134000D179E061
S2140053202200012313401DD06C4A6C4B9B78DBB2E5
S21400533020218B43DBB29370684A684B9B78DBB2C4
S21400534010218B43DBB293707B6800221A817B6846
S21400535000225A807B681B7801229343DAB27B686E
S2140053601A70B4E07B681B89002B0ED07B681B8903
S214005370013B9AB27B681A8158487B68DB68591CE7
S2140053807A68D1601B780371A1E07B685B88002B8C
S2140053901FD07B685B88012B08D1504A4F4B9B7807
S2140053A0DBB208210B43DBB2937007E04B4A4B4B52
S2140053B09B78DBB208218B43DBB29370474A474B9E
S2140053C09B78DBB210218B43DBB29370434B1B7987
S2140053D07DE07B681B7801229343DAB27B681A7003
S2140053E07B685B78012B0FD13C4A3C4B9B78DBB249
S2140053F020218B43DBB29370384A384B9B78DBB264
S21400540010218B43DBB293707B681B69180001F098
S21400541065FB5CE07B685B88013B9AB27B685A80E0
S2140054207B685B88002B0CD07B685B88012B1FD1C8
S2140054302A4A2A4B9B78DBB208210B43DBB29370D7
S21400544016E07B681B7801229343DAB27B681A70F9
S214005450224A224B9B78DBB220218B43DBB293702F
S2140054601E4A1E4B9B78DBB208218B43DBB293703F
S2140054707B685B68591C7A685160184A1279D2B208
S2140054801A707B685B88002B21D17B681B6918002B
S21400549001F032FB1BE022001023134017D07B687C
S2140054A000221A817B6800225A807B6801225A708B
S2140054B07B681B7801229343DAB27B681A70074A2E
S2140054C0064B9B78DBB210218B43DBB29370C04651
S2140054D0BD4603B090BDC046C0F8FF1F0060064042
S2140054E080B584B000AF7860384BFB60FB687A68A4
S2140054F01A61374BFA681A60FB6800221A70FB685C
S21400550001225A70FB6800225A80FB6800221A812A
S2140055103049304A304BD358402213432E4A8B50E2
S2140055202E4B00229A702D4B40229A712B4B022252
S214005530DA702B4B2A4A52682A490A408021890091
S2140055400A435A60264B264A126826490A4080219A
S21400555089000A431A602449234AC2239B00D35871
S214005560FF22934380221A43C2239B00CA501E4B3D
S2140055701D4A1268802149000A431A60174B002210
S2140055805A71164B00229A71144B08221A72134B4A
S21400559049225A701149114B9B78DBB25BB28022CC
S2140055A0524213435BB2DBB28B700C4A0B4B9B78B8
S2140055B0DBB240210B43DBB293700C4BFA681A60E7
S2140055C0FB681800BD4604B080BDC046ACF8FF1F9F
S2140055D0C0F8FF1F00700440341000000060064052
S2140055E000A00440FFF8FFFE00E100E010F9FF1FF6
S2140055F080B586B000AFF860B9601900BB1D1A8090
S2140056007B1D0A1C1A70FB687B61BB1D1B88002B68
S21400561001D100237FE07B695B78012B12D1404BE0
S214005620DB78DBB21A002023134009D17B691B7894
S2140056301A000123134003D17B691B89002B0DD070
S214005640082368E07B691B781A000123134003D106
S2140056507B691B89002B01D008235CE01323FB1811
S214005660EFF3108072B618702E4B1B78DBB2013346
S214005670DBB22C4A191C1170012B04D11323FB1822
S2140056801A78294B1A707B691B7801221343DAB209
S2140056907B691A707B69BA68DA607B69BA1D128802
S2140056A01A817B697A1D12785A701D4A1C4B9B78AA
S2140056B0DBB25BB210210B435BB2DBB29370184BCC
S2140056C09B78DBB21A002023134008D0144A144BF0
S2140056D09B78DBB204210B43DBB2937009E0104ADF
S2140056E00F4B9B78DBB25BB220210B435BB2DBB285
S2140056F093700B4BD0221A710A4B1B78DBB2013B1E
S214005700DBB2084A191C1170002B03D1064B18781F
S21400571080F3108800231800BD4606B080BDC04642
S21400572000600640C4F8FF1F2020002080B586B029
S21400573000AFF860B9601900BB1D1A807B1D0A1CFB
S2140057401A70FB687B61BB1D1B88002B01D10023F0
S21400575085E07B1D1B78002B01D181237FE07B69D0
S2140057605B78012B12D1404BDB78DBB21A0020238A
S214005770134009D17B691B781A000123134003D11B
S2140057807B695B88002B0DD0082368E07B691B785B
S2140057901A000123134003D17B695B88002B01D0DC
S2140057A008235CE01323FB18EFF3108072B6187022
S2140057B02E4B1B78DBB20133DBB22C4A191C11705E
S2140057C0012B04D11323FB181A78294B1A707B6916
S2140057D01B7801221343DAB27B691A707B69BA68B8
S2140057E05A607B69BA1D12885A807B697A1D1278C6
S2140057F05A701D4A1C4B9B78DBB25BB210210B43E0
S2140058005BB2DBB29370184B9B78DBB21A00202396
S214005810134008D0144A144B9B78DBB204210B4388
S214005820DBB2937009E0104A0F4B9B78DBB25BB299
S21400583020210B435BB2DBB293700B4BD1221A7163
S2140058400A4B1B78DBB2013BDBB2084A191C11700D
S214005850002B03D1064B187880F31088002318001D
S214005860BD4606B080BDC04600600640C4F8FF1FB7
S2140058702020002080B582B000AF02003960FB1DFA
S2140058801A70FB1D1A783B6810009847C046BD4644
S21400589002B080BD80B582B000AF7860396006E0A7
S2140058A07B685A1C7A601A783B68100098477B68B9
S2140058B01B78002BF4D1C046BD4602B080BDC04662
S2140058C080B586B000AF786039607A680C23FB1824
S2140058D00C21180003F068FD3A680C23FB18110031
S2140058E01800FFF7D7FFC046BD4606B080BDC046CD
S2140058F080B586B000AF786039607A680C23FB18F4
S2140059000B21180003F012FE3A680C23FB18110056
S2140059101800FFF7BFFFC046BD4606B080BDC046B4
S21400592080B584B000AF02003960BB1D1A80BB1D75
S21400593000229A5E0823FB180721180003F022F9BC
S2140059403A680823FB1811001800FFF7A3FFC046AB
S214005950BD4604B080BDC04680B584B000AF02002E
S2140059603960BB1D1A80BB1D1A880823FB18062148
S214005970180003F06DF83A680823FB1811001800A9
S214005980FFF788FFC046BD4604B080BD80B584B032
S21400599000AF02003960FB1D1A70FB1D1A780C233D
S2140059A0FB180421180003F02BF83A680C23FB18A8
S2140059B011001800FFF76EFFC046BD4604B080BD5C
S2140059C080B584B000AF02003960FB1D1A70FB1D65
S2140059D000229A560823FB180521180003F024F825
S2140059E03A680823FB1811001800FFF753FFC0465B
S2140059F0BD4604B080BDC04680B584B000AFF86038
S214005A00B9607A60384AFB681100180010F020FB75
S214005A10031E07D0354AFB681100180010F018FB6B
S214005A20031E43D17B685A68314B11001800FFF7FC
S214005A3031FF7B685A682F4B11001800FFF72AFFCA
S214005A407B685A682A4B11001800FFF723FF7B6813
S214005A505A68294B11001800FFF71CFF7B685A682C
S214005A60234B11001800FFF715FF7B685A68214B7F
S214005A7011001800FFF70EFF7B685A681C4B1100D8
S214005A801800FFF707FF7B685A681C491C4B180074
S214005A9000F0C0FA7B685A681A491B4B180000F0E1
S214005AA0B9FABB6801221A70002319E0174AFB688E
S214005AB01100180010F0CCFA031E07D0144AFB6839
S214005AC01100180010F0C4FA031E08D1BB680122AA
S214005AD01A707B68180000F0B9F8030000E0002395
S214005AE01800BD4604B080BD309501003895010011
S214005AF0449501004895010088950100989501009D
S214005B00B4950100BC950100E0950100F0950100F8
S214005B10F895010080B582B000AF78607B685A685F
S214005B20044B11001800FFF7B5FEC046BD4602B094
S214005B3080BDC0460496010080B584B000AFB96051
S214005B407A603B600F23FB18021C1A703B68002229
S214005B501A7000231800BD4604B080BD80B586B01C
S214005B6000AFF860B9607A603B603B68DB689847D6
S214005B70031E66D01723FB1800221A703B681B68AA
S214005B801722BA18100098471723FB181B78002B0B
S214005B904FD01723FB181B78082B04D01723FB18AD
S214005BA01B787F2B0DD1BA68FB689A4240D9BB6838
S214005BB0013BBB60BB6800221A707B6801337B60C8
S214005BC036E01723FB181878BA68FB68D31A1A0051
S214005BD01623FB18F968FFF7AFFF031E10D009E085
S214005BE01723FB1800221A703B681B681722BA1886
S214005BF0100098471723FB181B78002BF0D1B9E745
S214005C001723FB181A78BB681A70BB680133BB6091
S214005C107B68013B7B601723FB181B780D2B0BD092
S214005C201723FB181B780A2B06D07B68012B02D99A
S214005C30A0E7C04600E0C046BB6800221A700123F9
S214005C4000E000231800BD4606B080BD80B582B0D7
S214005C5000AF78607B685A681249134B180000F052
S214005C60EBF97B685A681149114B180000F0E4F90B
S214005C707B685A680F4B11001800FFF70BFE7B6815
S214005C805A680D4B11001800FFF704FE7B685A682F
S214005C90044B11001800FFF7FDFD00231800BD4659
S214005CA002B080BD44950100B49501000C96010039
S214005CB018960100209601002496010080B582B057
S214005CC000AF786039603B689A68164B1100180080
S214005CD0FFF7E0FD3B689A687B6811001800FFF745
S214005CE0D9FD3B689A68104B11001800FFF7D2FDEB
S214005CF03B689A680D4B11001800FFF7CBFD3B6818
S214005D009A680B4B11001800FFF7C4FD3B689A68B1
S214005D10084B11001800FFF7BDFDC046BD4602B097
S214005D2080BDC046309601004495010050960100A3
S214005D30309501005C96010080B586B000AFF86033
S214005D40B9607A603B601723FB1800221A703B6824
S214005D50002B01D11B231AE07B68002B10D11B23DC
S214005D6015E03B681B687A68B968F8689847031EB0
S214005D7003D01723FB181B221A703B6804333B60C2
S214005D803B681B68002BECD11723FB181B78180008
S214005D90BD4606B080BDC04690B587B000AFF8607F
S214005DA0B9607A601723FB1800221A701623FB18B6
S214005DB000221A70BB68002B01D11B2345E0FB684C
S214005DC01B78002B01D100233FE0FB681B78233BA8
S214005DD05A425341DAB21623FB181A701623FB18E0
S214005DE01B78002B02D0FB680133FB601523FB18E1
S214005DF000221A701723FC187B68BA6815217918D8
S214005E00F868FFF799FF030023701523FB181B782B
S214005E10002B04D01723FB181B78002B09D0BA6878
S214005E20FB6811001800FFF749FF1723FB181B2219
S214005E301A701623FB181B78002B03D1BB681800BA
S214005E40FFF768FE1723FB181B781800BD4607B03F
S214005E5090BDC04680B582B000AF7860034B7A68CC
S214005E601A6000231800BD4602B080BD70F0FF1F08
S214005E7080B500AF024B1B681800BD4680BDC0460B
S214005E8070F0FF1F90B587B000AFF860B9607A6019
S214005E903B601723FB1800221A707B68002B01D189
S214005EA01B2361E0FB68180013F0A4FA03003B61B3
S214005EB0FA683B69D118BA683B69D21A7B68F868F9
S214005EC0FFF74CFE031E4CD0FB68180013F092FA46
S214005ED003003B613B69002B01D11B2344E03B6977
S214005EE0012B0AD1FB681B780A2B03D0FB681B78B2
S214005EF00D2B02D1FB6800221A70BB685A1E3B6944
S214005F009A420DD83A687968FB681800FFF744FF94
S214005F10FB6800221A701723FB1804221A7020E070
S214005F203B69013BFA68D3181B780A2B06D03B69FD
S214005F30013BFA68D3181B780D2B12D13B69013B45
S214005F40FA68D31800221A701723FC183A68796882
S214005F50FB681800FFF720FF03002370FB68002291
S214005F601A701723FB181B781800BD4607B090BDA3
S214005F7080B500AFC046BD4680BDC04680B500AF08
S214005F80C046BD4680BDC04680B500AF00231800A1
S214005F90BD4680BD80B584B000AFF860B96019001A
S214005FA0FB1D1A70BB1D0A1C1A700BE0FB685A1CFE
S214005FB0FA601A78BB6910009847BB1D1A78BB1D9B
S214005FC0013A1A70FB681B78002B0CD0BB1D1B789F
S214005FD0002BEBD107E0BB6920209847BB1D1A7841
S214005FE0BB1D013A1A70BB1D1B78002BF3D1FB1D9D
